:020000040800F2
:1000000000000320795B0008B9560008BB560008C1
:10001000BD560008BF560008C15600080000000089
:100020000000000000000000000000000142000885
:10003000C35600080000000091420008F542000885
:10004000C95B0008C95B0008C95B0008C95B000800
:10005000C95B0008C95B0008C95B0008C95B0008F0
:10006000C95B0008C95B0008C95B0008C95B0008E0
:10007000C95B0008C95B0008C95B0008C95B0008D0
:10008000C95B0008C95B0008C95B0008C95B0008C0
:10009000C95B0008C95B0008C95B0008C95B0008B0
:1000A000C95B0008C5560008C95B0008C95B0008A9
:1000B000C95B0008C95B0008C95B0008C95B000890
:1000C000C95B0008C95B0008C95B0008C95B000880
:1000D000C95B0008C95B0008C95B0008C95B000870
:1000E000C95B0008C95B0008C95B0008C95B000860
:1000F000C95B0008C95B0008C95B0008C95B000850
:10010000C95B0008C95B0008C95B0008C95B00083F
:10011000C95B0008C95B0008C95B0008C95B00082F
:10012000C95B0008C95B0008C95B0008C95B00081F
:10013000C95B0008C95B0008C95B0008C95B00080F
:10014000C95B0008C95B0008C95B0008C95B0008FF
:10015000C95B0008C95B0008C95B0008C95B0008EF
:10016000C95B0008C95B0008C95B0008C95B0008DF
:10017000C95B0008D1560008C95B000800000000F8
:10018000C95B0008C95B0008C95B0008C95B0008BF
:10019000C95B0008C95B0008C95B0008C95B0008AF
:0C01A000C95B0008C95B0008C95B0008CF
:1001B00010B5054C237833B9044B13B10448AFF3A1
:1001C00000800123237010BD3C01002000000000CE
:1001D0008863000808B5034B1BB103490348AFF31C
:1001E000008008BD00000000400100208863000876
:1001F00010F8012B11F8013B012A28BF9A42F7D0D1
:10020000D01A704753B94AB9002908BF00281CBF4B
:100210004FF0FF314FF0FF3001F0F6B8ADF1080CB0
:100220006DE904CE00F006F8DDF804E0DDE9022314
:1002300004B070472DE9F0478C460D460446089EF1
:10024000002B51D18A4217466DD9B2FA82FEBEF117
:10025000000F0BD0CEF1200C01FA0EF520FA0CFCA9
:1002600002FA0EF74CEA050C00FA0EF44FEA174AB0
:10027000250CBCFBFAF81FFA87F90AFB18CC45EAF3
:100280000C4508FB09F3AB420AD9ED1908F1FF321E
:1002900080F02381AB4240F22081A8F102083D4466
:1002A000ED1AA4B2B5FBFAF00AFB105544EA054476
:1002B00000FB09F9A14509D9E41900F1FF3380F0E9
:1002C0000A81A14540F2078102383C44A4EB0904AD
:1002D00040EA08400021002E61D024FA0EF40023E9
:1002E00034607360BDE8F0878B4207D9002E54D08C
:1002F000002186E821000846BDE8F087B3FA83F1C3
:10030000002940F08E80AB4202D3824200F2FA8094
:10031000841A65EB03050120AC46002E3FD086E829
:100320001010BDE8F08712B90127B7FBF2F7B7FA52
:1003300087FEBEF1000F34D1EB1B3A0C1FFA87FC8D
:100340000121B3FBF2F8250C02FB183345EA034503
:100350000CFB08F3AB4207D9ED1908F1FF3002D2CC
:10036000AB4200F2D1808046ED1AA3B2B5FBF2F0A9
:1003700002FB105543EA05440CFB00FCA44507D9D9
:10038000E41900F1FF3302D2A44500F2B880184608
:10039000A4EB0C0440EA08409DE731463046BDE836
:1003A000F087CEF1200405FA0EF307FA0EF720FAD3
:1003B00004F83A0C25FA04F448EA0308B4FBF2F115
:1003C0004FEA184502FB11441FFA87FC45EA044531
:1003D00001FB0CF3AB4200FA0EF409D9ED1901F15F
:1003E000FF3080F08A80AB4240F2878002393D4482
:1003F000EB1A1FFA88F5B3FBF2F002FB103345EA63
:10040000034500FB0CF3AB4207D9ED1900F1FF38AF
:100410006FD2AB426DD902383D44EB1A40EA01413C
:100420008FE7C1F1200722FA07F88B4005FA01F4A3
:1004300048EA030320FA07FE4FEA134CFD404EEA58
:10044000040EB5FBFCF94FEA1E440CFB19551FFACC
:1004500083F844EA054509FB08F4AC4202FA01F2CC
:1004600000FA01FA08D9ED1809F1FF3043D2AC4285
:1004700041D9A9F102091D442D1B1FFA8EFEB5FBBF
:10048000FCF00CFB10554EEA054400FB08F8A045B3
:1004900007D9E41800F1FF3529D2A04527D9023841
:1004A0001C4440EA0940A4EB0804A0FB02894C4527
:1004B000C6464D4615D312D056B1BAEB0E0364EBC7
:1004C000050404FA07F7CB401F43CC403760746043
:1004D0000021BDE8F0871846F8E69046E0E6C24500
:1004E000EAD2B8EB020E69EB03050138E4E72846CF
:1004F000D7E7404691E78146BEE7014678E70238F4
:100500003C4445E7084608E7A8F102083D442BE7CC
:1005100003685A004CBF43F0004323F000431844E3
:10052000704700BF61B32DE9F84F01F1FF3A9046E3
:100530000646D146002707EB090404EBD474641087
:10054000E50071190846FFF7E3FFA245834605F170
:100550000800304409D0FFF7DBFFC34500F1FF304E
:1005600005D8404509D2671CE5E7C34505D9A74230
:1005700002D004F1FF39DEE700210846BDE8F88F1C
:1005800008467047012807D0022807D0044B0028EE
:100590000CBF184600207047024870470248704759
:1005A000890C00088D0C0008910C000830B5244B14
:1005B00083B004468D1E7BB301A92846AFF30080AB
:1005C00020B301992A46FFF7ADFF0146F0B1FFF7CE
:1005D0009FFF4B68A064012B12D0002B01F1040097
:1005E00020DBFFF795FF0023E06423650368002B01
:1005F0001CDBFFF78DFF00232061184603B030BDE0
:10060000002323610523184603B030BD0023236176
:100610000923184603B030BD0A490B48091AC9100E
:100620000191CFE70123E0642365DFE7C3F30360B3
:10063000FFF7A8FF0028206114BF00230923DCE78F
:1006400000000000E8660008006600080368DA079A
:1006500010B5044606D49B0700F1480009D500F008
:1006600051FC2368590709D51A070ED5DB0613D5A7
:1006700010BD00F03FFC23685907F5D404F1D00009
:1006800000F048FC23681A07F0D404F5A87000F0C5
:1006900049FC2368DB06EBD404F5E870BDE81040A4
:1006A00000F084BC036803B103441846704700BFE0
:1006B00009207047704700BF70B504460D4608E03A
:1006C0002B6C63612A46236921460120984708283C
:1006D00008D1296C2046FFF769FF06460028EFD0B5
:1006E00005F0D2FC0728FBD13046296CFFF7E2FF6A
:1006F000281D00F0F3FB00BF2DE9F0470C1D054657
:1007000092460FCCADF5727D03AE0FC60FCC0FC66F
:100710000FCC0FC694E80F0002ACD5F80C80D5F8CA
:10072000189086E80F0000232846216C2360FFF70D
:100730003DFFBAF1000F074614BF0A2609267FB114
:10074000A36B46F010018DE810022A466364012075
:100750002B46C04778BB38460DF5727DBDE8F08763
:10076000236C6B614FF4F07221467AA805F0D6FC39
:100770002B697AAA294630469847889B82468DE89D
:100780001002314663642A462B460120C04790B9C7
:100790004FF4F0727AA9204605F0C0FCBAF1080FB8
:1007A00006D1216C2846FFF701FF09260746C6E758
:1007B000BAF1070F05D0092738460DF5727DBDE85F
:1007C000F0873846216CFFF775FF03A800F086FB21
:1007D000406C7047F0B5CB6B0B640E1D0F460446A2
:1007E0000FCEF9B001AD0FC50FCE0FC50FCE0FC59F
:1007F00096E80F004FF0FF3685E80F00009606E000
:1008000023696A46214698470828054608D1109969
:100810002046FFF7CBFE0028F2D0092079B0F0BDCA
:100820006846FFF713FF062DF7D139462046FFF73C
:1008300043FF00BF30B4DD6BC160826119461D64A7
:10084000002230BC58E700BF70B5C66843690B642E
:1008500026B10122FFF750FF05F016FC03690A4696
:1008600004460D46014602209847072807D008286D
:1008700003D129462046FFF71FFF05F005FC30464F
:10088000296CFFF717FF281D00F028FBC2681AB17A
:10089000CA6B0A6400222FE79CE700BF704700BFC5
:1008A000836813B1014601201847704700B5042939
:1008B00007D8DFE801F00309060909000BB90F2A80
:1008C00005D902205DF804FB01205DF804FB00EB74
:1008D000820218465368019A13605DF804FB00BF5A
:1008E00010B584B0002303AC0A4600941946FFF704
:1008F000DDFF039804B010BD00B5042907D8DFE878
:1009000001F00309060909000BB90F2A05D90220D5
:100910005DF804FB01205DF804FB019900EB820205
:100920000968516018465DF804FB00BF10B584B03B
:1009300004AC002344F8042D0A4600941946FFF73E
:10094000DBFF04B010BD00BFF0B5D36B1364151D01
:1009500007460E460FCDADF50F7D17AC0FC40FCD7A
:100960000FC40FCD0FC495E80F004FF0FF3584E89A
:100970000F00169510E016A8FFF7D8FF314616A80D
:10098000B84716AA694678B9049B082098470528F5
:1009900004460AD0092807D026996846FFF706FEC4
:1009A0006A460C210028E6D0092416A8FFF74EFE5F
:1009B00020460DF50F7DF0BD2DE9F04F0D46C96CB9
:1009C0008BB00C1D096807919146089400F0030B49
:1009D0001E46002B60D10902032307918DF8256084
:1009E0008DF824302B6DBBF1020F08BFAC6B13F0F8
:1009F000010340D1019300F008030393D4F8008071
:100A0000B8F1000F39D0022E43D0B4F800806788C7
:100A10000434AB6C27F0010A0F2148469A44FFF7D3
:100A20005FFF824533D828F001039A4450452CBF1C
:100A3000002001207F0007F0020708F0010847EAC4
:100A40000807012F3ED035D3022F1CD1236823F095
:100A500000420292BBF1000F76D128B10399002920
:100A60007ED0002A00F0A680002B77DB029B0133AA
:100A700004EB8304C2E700230193022E3EDDFFF75F
:100A800017FE002840D009200BB0BDE8F08F0020F1
:100A9000D0E767680834BCE7022BA3DC0B0CDAB2A2
:100AA00009048DF82530022304EB820407918DF8A8
:100AB000243097E7BBF1000F02D0002840F0BD8042
:100AC00004349BE7BBF1000F25D1A8B194E80C00DA
:100AD000991C4FEAD272D6D005F158010133069124
:100AE00000F0A380201DFFF7DDFD06AB0146284680
:100AF000AFF30080002877D108347FE707A9484684
:100B000000F0EEFA0028BED1019B002B5CD108203A
:100B10000BB0BDE8F08F0D2148462F6AFFF7E0FECD
:100B20008742E9D1AB6A9C42E6D12046FFF7F0FC50
:100B30000F2102464846FFF7F9FE48462A460021A3
:100B4000FFF7F4FE07209FE70D2148462F6AFFF7C5
:100B5000C7FE874258D02368002B87DA043485E724
:100B6000029B3BB305F15803271DCDF810B0DDF80B
:100B70000C80DDF808A00596A3461C4602E0B245AD
:100B8000B04616D038460694FFF78CFD06AB0146FA
:100B900000222846AFF3008008F101060437002840
:100BA000EDD0029B059E43455C46DDF810B0D2D1E6
:100BB00000E05C4648460D21FFF792FE069B286246
:100BC000AC626B6206205FE70F214846FFF788FEA4
:100BD0000E2102464846FFF7A9FE4846294A0F2142
:100BE000FFF7A4FE07204FE707460D214846FFF711
:100BF00077FE022F28621DD12B46069A43F82C2F30
:100C00006B62AC6206203FE7AB6A9C42A3D1042230
:100C10000027A3180299A962EF622A636B63236815
:100C2000BB421DDB0123019320E748460D21FFF75E
:100C300057FE2862069B6B62E3E72046FFF768FCDD
:100C400004340646AC632846AFF3008000283FF426
:100C50001AAF484632460F21FFF768FE072013E718
:100C60000846013004EB8000FFF752FC0F210246DA
:100C70004846FFF75BFE48462A463946FFF756FED0
:100C8000072001E700000000002395E6012393E61A
:100C9000022391E6F0B50446C5B004290DD8DFE87B
:100CA00001F053030C310F00012B4FEA124695B2AD
:100CB00062D17219102A40F29B80022045B0F0BD2B
:100CC000002BFAD1102AF8D82368D80600F1C68084
:100CD00022AE3046019200F073F9A06B019A002316
:100CE000012505FA03F1114203D0016846F82310EB
:100CF00004300133042BF4D1A063304600F056F9E0
:100D00000020DBE7032BD8D1150C97B2EB19102B81
:100D1000D3D823681E0700F1B58022AE304600F01C
:100D200023F9ED00A36B4FB1043D711903EBC7002C
:100D300053F8042B41F8042F8342F9D13046A363C2
:100D400000F0F0F80020B9E7002BB6D1A56B97B200
:100D5000201D012606FA03F1394203F1010302D0F6
:100D6000296801600435102B00F10400F2D112F45F
:100D700000503BD1A563A1E7052B9ED17719202F09
:100D80009BD80F2E66D92F46002D3AD12A46002730
:100D9000002AA06B72DD00EBC202014644A800EB02
:100DA000C6008C3851F8045B40F8045F9142F9D1D9
:100DB000084697B1102E324644A938BF102201EBE5
:100DC000C202A2F5C4727900043A00EB810150F826
:100DD000045B42F8045F8842F9D1012B48D00F2E02
:100DE000A16333D917B102A800F094F8002065E799
:100DF0000F2E3FF662AF00272268D10717D4002FCD
:100E000060D02268510745D4012B4DD00F2E06D853
:100E100022A8019300F07AF8019B002FB6D002A817
:100E2000019300F07BF8019BC6F11002B0E722F0BD
:100E30000101052B2160019320463BD022F00302E3
:100E400040F8482B00F05AF8019BD8E722A800F0A0
:100E500059F8C7E7102FCED9103FCDE723F0100384
:100E6000236004F5E870019200F0AAF8019A2FE7D8
:100E70000431A16322A800F03DF8B7E7002F99D113
:100E80000146AAE723F00803236004F5A87000F0E8
:100E90006BF842E7204622F0040240F8D02B019381
:100EA00000F03CF8019BAFE722A8019300F026F880
:100EB000019BB9E741F0020140F8481B00F026F819
:100EC000019B9CE7012B03D00F2E3FF65FAF9FE7FE
:100ED00022A8019300F012F8019B57E700F13401BA
:100EE00091E838009C46A6464CF8045D90E8FF0F58
:100EF000E54600BD90EC210B704700BF80EC210B54
:100F0000704700BF90EC200B704700BF80EC200BB7
:100F1000704700BFD0EC200B704700BFC0EC200B27
:100F2000704700BFF0EC0201F0EC0211F0EC02217E
:100F3000F0EC0231F0EC0241F0EC0251F0EC026115
:100F4000F0EC0271F0EC0281F0EC0291F0EC02A105
:100F5000F0EC02B1F0EC02C1F0EC02D1F0EC02E1F5
:100F6000F0EC02F1704700BFE0EC0201E0EC02118E
:100F7000E0EC0221E0EC0231E0EC0241E0EC025155
:100F8000E0EC0261E0EC0271E0EC0281E0EC029145
:100F9000E0EC02A1E0EC02B1E0EC02C1E0EC02D135
:100FA000E0EC02E1E0EC02F1704700BFB0FC01812F
:100FB000B0FC0191B0FC01A1B0FC01B1704700BFD1
:100FC000A0FC0181A0FC0191A0FC01A1A0FC01B149
:100FD000704700BFEC4600B52DE900502DE9FF1F1A
:100FE0004FF000032DE90C0001A9FFF7F3FBDDF83A
:100FF00040E012B0704700BFEC4600B52DE900504C
:101000002DE9FF1F4FF000032DE90C0001A9FFF7A8
:101010001BFCDDF840E012B0704700BFEC4600B5A5
:101020002DE900502DE9FF1F4FF000032DE90C00C2
:1010300001A9FFF72BFCDDF840E012B0704700BFBC
:10104000EC4600B52DE900502DE9FF1F4FF00003DD
:101050002DE90C0001ABFFF7EDFBDDF840E012B02D
:10106000704700BFEC4600B52DE900502DE9FF1F89
:101070004FF000032DE90C0001AAFFF765FCDDF835
:1010800040E012B0704700BF027A1AB9437A43B900
:10109000B02070470368013A02721A020260180E0B
:1010A00070474268013B10B4437213680321141D5A
:1010B00001721A02446002605DF8044B180E70471A
:1010C00000B585B003AA0023009219460C22FFF751
:1010D000EDFB039805B05DF804FB00BFF0E700BF2F
:1010E0002DE9F043064685B00F464FF0000838461C
:1010F000FFF7CAFFB028044623D0050627D40023F3
:101100000DF10C09194685000D22CDF800903046EE
:10111000FFF7CCFBEDB2039BCDF80090600605F124
:1011200004054CBF5D1BED18002319460D22304607
:101130000395FFF7E1FB3846FFF7A6FFB02804460A
:10114000DBD1B8F1000F00F0958000201CE000F02A
:10115000F003802B5DD0902B19D0A02B2CD0B02B7E
:101160003FD0C02B6CD000F0F803D02B0BD100F097
:101170000702013242F40022052301213046FFF725
:1011800089FD0028B3D0092005B0BDE8F08300F048
:101190000D030D2BF7D003AD002300F00F0219460D
:1011A00000953046FFF782FB0023009519460D227B
:1011B0003046FFF7A1FB9AE7C24302F007034FF462
:1011C0007F621A41010702F47F624FF0000348BFBB
:1011D00042F4804219463046FFF75CFD0028D2D128
:1011E00085E7B12857D0B22868D0B32800F09580A1
:1011F00000F0FC03B42BC6D000F00702013201233B
:1012000042F4002219463046FFF744FD0028BAD1C7
:101210006DE73846FFF738FF24020443B4F5004F6A
:10122000B1D024010023A2B219463046FFF732FDA7
:101230000028A8D114F4004F18BF4FF0010856E75A
:10124000C6287DD0C72800F0868000F0F803C02BA8
:1012500000F09480C82800F09F80C92893D13846B8
:10126000FFF712FF020300F00F0002F470220130BA
:10127000024381E703AC43460E22414600943046C8
:10128000FFF714FB0094304643460F224146FFF718
:1012900033FB404678E73846FFF7F6FE00283FF478
:1012A00072AF10F0F0037FF46EAF0246194630467D
:1012B000FFF7F0FC00287FF466AF18E700230DF17C
:1012C0000C090D221946CDF800903046FFF7EEFAD2
:1012D0003846FFF7D9FE02064FF002040CD5039BF7
:1012E00000F07F00A040034438460393FFF7CCFE94
:1012F000030604F10704F2D4039BCDF8009000F03C
:101300007F02A24003F501740023144419460D2204
:1013100030460394FFF7F0FAE9E63846FFF7B4FEEB
:10132000010300F00F0001F47021421C01230A4365
:1013300030461946FFF7AEFC00287FF424AFD6E60E
:101340003846FFF7A1FE010300F00F0001F4702101
:10135000421C0323EBE73846FFF796FE00283FF4D4
:1013600012AF10F0F0037FF40EAF024604213046B6
:10137000FFF790FC00287FF406AFB8E600F00F02FC
:101380000132032342F4202219463046FFF782FC43
:1013900000287FF4F8AEAAE63846FFF775FE00F0A5
:1013A000F00200F00F031032013343EA0232E3E6A9
:1013B00010B5C36C84B05A6803208DF80C00DC793A
:1013C0008DF80D4012020833084601A901920293DC
:1013D000FFF786FE04B010BD08B5FFF77FFE806CF6
:1013E00008BD00BF08B5FFF779FEC06CC37900EBFC
:1013F0008300083008BD00BF08B504F045FE00BFFB
:1014000008B5FFF7F9FF00BF704700BF80B582B095
:1014100000AF78607B68184600F02CF8034A7B68C0
:101420001A607B6818460837BD4680BDBC6300085B
:1014300080B582B000AF7860054A7B681A607B682F
:10144000184600F02DF87B6818460837BD4680BD69
:10145000BC63000880B582B000AF78607868FFF7A1
:10146000E7FF1821786804F039FC7B6818460837D4
:10147000BD4680BD80B483B000AF7860074A7B680A
:101480001A607B68103300221A609A807B681846C5
:101490000C37BD465DF8047B704700BFE46300086D
:1014A00080B483B000AF7860044A7B681A607B68C0
:1014B00018460C37BD465DF8047B7047E4630008AE
:1014C00080B582B000AF78607868FFF7E9FF182137
:1014D000786804F003FC7B6818460837BD4680BD79
:1014E00008B50B4B1A6842F400721A601A6842F48D
:1014F00080621A601A6842F480721A60032000F059
:10150000ABF8002004F09AF804F076F8002008BD4B
:10151000003C0240034A044B11681B780B441360E3
:10152000704700BF983F002004000020014B18685E
:10153000704700BF983F002038B50446FFF7F6FF1C
:10154000631C1CBF054B1B78054618BFE418FFF74A
:10155000EDFF401B8442FAD838BD00BF04000020D4
:1015600038B5044600286ED090F820300BB903F04F
:1015700077FB2268136823F002031360FFF7D6FF9E
:10158000054623685A68910751D41A6842F001024F
:101590001A60FFF7CBFF054623685A68D20754D577
:1015A000227E012A1A680CBF42F0800222F08002DB
:1015B0001A60627E012A1A680CBF42F0400222F0D3
:1015C00040021A60A27E012A1A680CBF42F0200273
:1015D00022F020021A60E27E012A1A680CBF22F073
:1015E000100242F010021A60227F012A1A680CBF12
:1015F00042F0080222F008021A60627F012A1A688B
:101600000CBF42F0040222F004021A60E168A268F2
:101610000A4321690A4361690A43616801390A433F
:10162000DA6100200123606284F8203038BDFFF7C2
:101630007DFF401B0A28A4D9636A43F40033636228
:10164000052384F82030012038BDFFF76FFF401BD1
:101650000A28A1D9F0E70000074AD36823F4E06321
:101660001B041B0C43F0BF63000243F4003300F47F
:10167000E0600343D360704700ED00E0174B30B5E6
:10168000DC68C4F30224C4F10703251D042B28BF22
:101690000423062D4FF0010505FA03F303F1FF3390
:1016A0008CBF033C00241940A14005FA04F4013C1E
:1016B0002240002842EA01024FEA0212AFBF00F1C5
:1016C000604000F00F00064BD2B2A5BF00F56140AC
:1016D000D2B21A5480F8002330BD00BF00ED00E004
:1016E00014ED00E04209012300F01F0003FA00F0AE
:1016F000014B43F82200704700E100E010B50446BA
:1017000030B390F8393003F0FF021BB980F838206D
:1017100003F0FAFA22686168022384F8393013680A
:1017200023F440330B431360536BA16823F007038A
:101730000B435363136CE16823F47F5323F03F039F
:101740000B43136400200123E06384F8393010BD9B
:10175000012010BD90F83830012BF0B54FF0020396
:101760003FD00E018519012280F83820EA6980F8FF
:101770003930A2F10907012F0368D5F820E06C6A1F
:1017800011D804F07F4444EA0E44224381B95C6AD4
:10179000194921400A435A6282699A61426A22F0D9
:1017A0007F429A6217E0240644EA0E442243D1B1F4
:1017B000DD69114C012F04EA0504064442EA0402E3
:1017C00098BF00EB0111DA61B2691A619EBF4A6AE3
:1017D00022F07F421A62012380F83930002380F81A
:1017E00038301846F0BD5C6A034921400A435A620A
:1017F00082699A61EFE700BFF0FFFC002DE9F04F2E
:1018000085B00B68DFF8C4816E4ADFF8C49101939C
:1018100000234FF0010E019C0EFA03FE0EEA0406AF
:10182000B64540F0B6804C6824F01007022F16D160
:101830004FEAD30A00EB8A0A03F0070BDAF82050CC
:101840004FEA8B0B4FF00F0C0CFA0BFC25EA0C0C3B
:101850000D6905FA0BF545EA0C05CAF820504FEA68
:10186000430A0325D0F800B005FA0AF5ED4304F069
:10187000030C0BEA050B0CFA0AFC013F4CEA0B0CBB
:10188000012FC0F800C011D8876807EA050BCF68A0
:1018900007FA0AFC4CEA0B078760476827EA0E0E36
:1018A000C4F300179F4047EA0E074760C7683D40F2
:1018B0008F6807FA0AF73D43C560E50069D54FF028
:1018C000000BCDF80CB0D8F844703F4D47F480477A
:1018D000C8F84470D8F8447007F480470397039F12
:1018E00023F0030707F1804707F59C3703F0030C4B
:1018F000D7F808A04FEA8C0C4FF00F0E0EFA0CFE32
:10190000A8422AEA0E0E4BD005F58065A84249D0C0
:1019100005F58065A84247D005F58065A84245D009
:1019200005F58065A84243D0484543D005F50065DC
:10193000A84241D005F58065A8423FD005F58065F5
:10194000A8423DD005F58065A84214BF0A250925A7
:1019500005FA0CF545EA0E05BD601568F74314F469
:10196000803F0CBF3D4035431560556814F4003F7F
:101970000CBF3D4035435560956814F4801F0CBF83
:101980003D4035439560D568A40254BF3D40354382
:10199000D5600133102B7FF43CAF05B0BDE8F08F6C
:1019A0005D46D5E70125D3E70225D1E70325CFE73B
:1019B0000425CDE70525CBE70625C9E70725C7E7B9
:1019C0000825C5E7003C0140000002400038024005
:1019D0000014024070B50446002862D090F83D30F3
:1019E00003F0FF021BB980F83C2003F09BFA226849
:1019F0002D4E2E4D242384F83D30136823F001032F
:101A0000136001F049F863682268B0FBF5F5B34252
:101A100084BF4FF496716943556091BF691C4FF4C0
:101A20007A75B1FBF5F10131B342116221D85B0047
:101A3000B0FBF3F0C0F30B03032B98BF0420216A23
:101A4000E369D0610B431360E16823690B43936042
:101A5000A16963690B43D360136843F0010313600A
:101A600000202023206484F83D30206384F83E0069
:101A700070BDA16849B903EB4303B0FBF3F0C0F3B9
:101A80000B0363B140F40040D9E719214B43B0FB8D
:101A9000F3F0C0F30B0313B140F44040CFE7012053
:101AA000CDE7012070BD00BFA086010040420F00BD
:101AB00090F83D20D2B2202A10B516D1242380F808
:101AC0003D3003681C6824F001041C605C6A24F04B
:101AD00010045C625C6A21435962196841F001019B
:101AE000196080F83D20002010BD022010BD30B5E7
:101AF00090F83D40E4B2202C16D10268242380F8EF
:101B00003D30156825F001051560556A4FF6F073F4
:101B10002B400B439BB25362136843F001031360E5
:101B200080F83D40002030BD022030BD2DE9F0435B
:101B3000D20104684F68E568D1F800E0D1F8189048
:101B40008432A3180EF10106586800F47040586002
:101B5000E068C5F30B45C0F30B403D44304440EA18
:101B600005405860E068CD68C0F30A0005449868F5
:101B700000F470409860E6688868C6F30A06013091
:101B8000304440EA0540986018690E6920F007006B
:101B900018614FF0000C1E619D6991F8320091F8B8
:101BA0003180C3F818C091F8305045EA096545EA1C
:101BB000082545EA00459D61586920F0FF005861FD
:101BC00048695861D86920F4E06020F00700D861C6
:101BD000086ACD690543DD61986A486AC3F828C080
:101BE00098621EB3012E23D0B01E022822D9072EE0
:101BF0000CBF02200120DD6A05F0E025DD628D6A60
:101C0000C96AA7EB0E0745437843033040EA054015
:101C1000D862186B20F4FF6020F007001863196386
:101C2000A35843F00103A350BDE8F0830420E2E78A
:101C30000320E0E70220DEE738B50446002863D041
:101C400090F8A13003F0FF021BB980F8A02003F048
:101C500081FA022384F8A1302368A0689A6922F0EF
:101C600070429A61626899690243E06802432069A0
:101C700002430A439A619A68244960690A409A605B
:101C80009A6842EA0042A06902439A60DA68E06911
:101C90000A40DA60DA6842EA0042206A0243DA6007
:101CA0001A69606A0A401A611A6942EA0042A06A27
:101CB00002431A615A69114059615A69E16A42EA5C
:101CC0000142216B0A435A61D96A94F8360094F8AC
:101CD000355001F07F41D962D96A94F834200A4323
:101CE00042EA052242EA0042DA625A6B42F00602F8
:101CF0005A639A6942F001029A6100200123C4F8F4
:101D0000A40084F8A13038BD012038BD00F800F0EF
:101D1000F8B590F8A030012B06468E4694464FF059
:101D200002001DD034240D4686F8A10004FB026495
:101D30000FCD0127383486F8A0700FC40FCD0FC423
:101D40000FCD0FC42B682360304662467146FFF703
:101D5000EDFE336800205F6286F8A17086F8A0006F
:101D6000F8BDF0B506468BB0002864D00323344696
:101D700080F8B93303F05AFD54F8100B01F0B2F9B2
:101D80000FCC6D460FC50FCC0FC594E8030085E856
:101D90000300371D97E80E00306801F063F9002159
:101DA000306801F0A5F900213346324606F11004EF
:101DB0000125084682F83810D18701310F2982F8B1
:101DC000395082F83B0010645064D06402F11C0268
:101DD000F0D10022D6F800E0114602F1400083F86D
:101DE000F821DA870EEB800001320F2A83F8F9110F
:101DF00083F8FB11C3F80012C3F80412C3F80C12E5
:101E0000416003F11C03E8D10FCC6D460FC50FCC28
:101E10000FC594E8030085E80300704697E80E00BC
:101E200001F07EF9012386F8B933306801F09BFC9C
:101E300000200BB0F0BD0120FBE790F8B833012B78
:101E400010B504460CD0012380F8B833006801F0C7
:101E50007EFC206801F040F9002084F8B80310BD32
:101E6000022010BD2DE9F04FD0F8009087B0044655
:101E7000484601F0B2FC0290002840F02E81206814
:101E800001F07DFC002800F02881206801F077FC3B
:101E9000850748BF2268206842BF536903F00203E8
:101EA000536101F06CFC10F400250AD0206801F0A9
:101EB0006AFC09F530660746A2460025002F40F06F
:101EC0000F81206801F05BFC41030BD5206801F015
:101ED00062FC2646039009F510680025039B002B41
:101EE00040F03F81206801F04AFC00280DDAD9F863
:101EF000043823F00103C9F80438204603F014FD28
:101F00002268536903F000435361206801F037FCF5
:101F100006050BD5D9F80838D80702D5204603F0B6
:101F2000EBFC2268536903F400635361206801F0FD
:101F300026FCC10437D509F500667368206823F0D4
:101F400001037360102101F087F9616809F51063DE
:101F5000FF220298884240F092814FF0FF33B36134
:101F6000F36943F00113F361236B002B00F08F81C1
:101F7000D6F8843043F00B03C6F88430736C43F01A
:101F80000B037364D9F80038217C206823F4FE63C6
:101F9000C9F8003804F56F7201F03EFC22685369FD
:101FA00003F480535361206801F0E9FB82041DD5DE
:101FB000206801F016FC2068C36823F47053C360E6
:101FC00001F073F9002840F06B812268E0604FF463
:101FD00000736361D36843F41053D360204603F069
:101FE0007AFC2268536903F400535361206801F0BE
:101FF000C6FBC3062BD52268936923F010039361B7
:10200000D9F82060C6F34343022B06F00F0840F0D6
:10201000A88147F6F0731E4214D01C2707FB08471F
:10202000C6F30A163246D7F80412484601F039FBC7
:10203000D7F804323344C7F80432D7F810321E44BC
:10204000C7F810622268936943F010039361206817
:1020500001F095FB070707D5204603F038FC2268FE
:10206000536903F008035361206801F088FBC6023E
:1020700008D5E9B2204603F05FFC2268536903F4F7
:1020800080135361206801F07AFB800208D5E9B221
:10209000204603F04DFC2268536903F4001353619A
:1020A000206801F06CFB410007D5204603F048FC96
:1020B0002268536903F080435361206801F05FFB9D
:1020C00042070AD523685D686B0702D5204603F0F6
:1020D0003BFC23685A6815435D6007B0BDE8F08F8C
:1020E000F80738D55FFA85FB5946206801F05BFB9D
:1020F00010F0010F804621D0216901239942B3607D
:102100000CD13169DAF80002C1F31201411ACAF8A0
:102110001012DAF804120844CAF80402594620469C
:1021200003F0C4FB2169012908D13DB9D4F80C2280
:1021300022B904F56F72206801F06EFB18F0080FE9
:1021400004D0204603F0ACFB0823B36018F0100F56
:102150001CBF1023B36001357F0820360AF11C0A2A
:10216000ACE6039BDA0758D55FFA85FB5946206831
:1021700001F023FBC307074620D5D9F834380121E5
:10218000A94023EA0103C9F834380123C8F808300C
:102190002369012B01BF736C326C9B187364594621
:1021A000204603F08CFB2169012907D135B9E36C86
:1021B00023B904F56F72206801F02EFB380744BF85
:1021C0000823C8F80830F90644BF1023C8F80830BF
:1021D0007A0644BF4023C8F80830BB0744BF022337
:1021E000C8F808303F0618D523680493F76C336DA0
:1021F000FF1A336C9F4228BF1F46049B03F51063F0
:1022000007F1030A03EB45134FEA9A0A0593059B6E
:102210009B699BB2534508D82FB3039B5B080135DC
:1022200003931C3608F1200858E6326DF36C934294
:10223000F2D9002BF0D0376C04989B1A9F4228BF2C
:102240001F46237C00935A46BBB2716C01F015FA0D
:10225000736C3B447364336D07F1030A3B444FEAEC
:102260009A0A3365D3E7049B012203F5006BD3F888
:102270003438AA4023EA0203CBF83430CDE7029881
:102280009A600130C3F808220290203361E6736936
:1022900043F00B037361336943F00B03336171E661
:1022A0000323E3604023636100F0F0FB344B354AC5
:1022B00003449342236804D8DA6842F47052DA6027
:1022C0008CE6314A314902448A4203D8DA6842F442
:1022D0006052F4E7A0F574022D49A2F510528A422B
:1022E00003D8DA6842F45052E9E7A0F18372294931
:1022F000A2F5E7428A4203D8DA6842F44052DEE7A8
:10230000254A264902448A4203D8DA6842F4305208
:10231000D5E7234A234902448A4203D8DA6842F4C3
:102320002052CCE7204A214902448A4203D8DA6885
:1023300042F41052C3E7A0F1B7721D49A2F55852FA
:102340008A4203D8DA6842F40052B8E7194A1A49B7
:1023500002448A42DA6894BF42F4E05242F4C05226
:10236000ADE7062B7FF46EAE082204F56F71484688
:102370001C2701F096F907FB0847C6F30A165CE62E
:10238000405327FFFF340C00401E1BFF3F420F004D
:102390007F4F12001FD6130060B6E5FE5FE3160004
:1023A00000D3CEFE3F771B00C05BB3FEBF91210080
:1023B0001F753800E05459FEDF9C410090F8B83397
:1023C000012B10B5044609D0012380F8B83300680A
:1023D00001F0ADF9002084F8B80310BD022010BD53
:1023E00070B54EB2002E04464FF01C0501F07F0080
:1023F000B5BF05FB004105FB0141383101F5FC711A
:10240000C0B2002EB8BFC880022BCB704FEAD67581
:1024100004BF00230B7108704D7094F8B8338A60C4
:10242000012B09D0012384F8B833206800F058FF4D
:10243000002084F8B80370BD022070BD4BB2002BA1
:1024400010B54FF01C02044601F07F00B5BF02FB3F
:10245000004102FB0141383101F5FC71DB0F0870CE
:102460004B7094F8B833012B09D0012384F8B833AA
:10247000206800F074FF002084F8B80310BD02202B
:1024800010BD38B501F07F051C2404FB050104FBD9
:10249000050401F5FC71C4F80C320023C4F80422D1
:1024A000C4F8103284F8F93184F8F85103690068EF
:1024B000012B08BFC4F80822DAB21DB901F070F888
:1024C000002038BD00F0A6FFFAE738B501F07F051F
:1024D0001C2404FB050104FB05043831E3640023DC
:1024E00023650123626484F8393084F83850036925
:1024F0000068012B08BFA264DAB21DB901F050F8E0
:10250000002038BD00F086FFFAE738B54BB2002B4B
:1025100001F07F054FF01C02B5BF02FB050102FB75
:102520000101383101F5FC710122DB0FEDB28A7037
:102530000D704B7090F8B833934204460FD080F87A
:10254000B823006801F0BBF82DB904F56F72217C47
:10255000206801F061F9002084F8B80338BD02203A
:1025600038BD38B54BB2002B05464FF01C0201F0C8
:102570007F00B5BF02FB005102FB0151383101F56C
:10258000FC71DB0F00248C7008704B7095F8B83329
:10259000012B09D0012385F8B833286801F0AEF883
:1025A00085F8B843204638BD022038BD006870B5B4
:1025B000436A21B943EA02438362002070BD846A02
:1025C000002503EB14434E1EECB2B44205F10105A5
:1025D00006DB3F3100EB810043EA02434360ECE756
:1025E000403400EB8404646803EB1443ECE70368B5
:1025F00000205962704700002DE9F341044618B9E4
:10260000012002B0BDE8F0810368DD0710D4236823
:10261000980758D423681A0700F19A8023685B074B
:1026200000F1B880A269002A40F019810020E8E793
:10263000A64B9A6802F00C02042A07D09A6802F0AE
:102640000C02082A0AD15B68590207D59F4B1B6808
:102650009A03DCD56368002BD9D1D1E763689B4D21
:10266000B3F5803F11D12B6843F480332B60FEF724
:102670005DFF964D06462B689B03C8D4FEF756FFB8
:10268000801B6428F7D90320BBE7B3F5A02F04D142
:102690002B6843F480232B60E5E72A6822F480321C
:1026A0002A602A6822F480222A60002BDFD1FEF7FC
:1026B0003DFF06462B689F03A9D5FEF737FF801B19
:1026C0006428F7D9DFE7814B9A6812F00C0F07D026
:1026D0009A6802F00C02082A11D15B685E020ED4DF
:1026E0007A4B1A68950702D5E268012A88D11A68E0
:1026F000216922F0F80242EAC1021A608AE7E26820
:10270000734BB2B101221A60FEF710FF6F4D0646FF
:102710002B68980707D52B68226923F0F80343EA52
:10272000C2032B6076E7FEF701FF801B0228EFD97A
:10273000A9E71A60FEF7FAFE644D06462B68990772
:102740007FF568AFFEF7F2FE801B0228F6D99AE704
:102750006269604B7AB101221A60FEF7E7FE5B4DB9
:1027600006466B6F9F073FF559AFFEF7DFFE801BF4
:102770000228F6D987E71A60FEF7D8FE534D0646C1
:102780006B6F98077FF54AAFFEF7D0FE801B0228DB
:10279000F6D978E74D4B1A6C12F0805228D101928D
:1027A0001A6C42F080521A641B6C03F08053019340
:1027B000019B0126484D2B68D9051BD5A368434DC5
:1027C000012B27D12B6F43F001032B67FEF7AEFEE1
:1027D0003E4D074641F288382B6F9B0739D5002EB6
:1027E0003FF420AF394A136C23F08053136419E788
:1027F0000026DFE72B6843F480732B60FEF796FE1C
:1028000007462B68DA05D9D4FEF790FEC01B0228D4
:10281000F7D938E7052B04D12B6F43F004032B675E
:10282000D0E72A6F22F001022A672A6F22F0040201
:102830002A67002BCAD1FEF779FE41F28838074695
:102840002B6F9807CBD5FEF771FEC01B4045F7D91B
:1028500019E7FEF76BFEC01B4045BDD913E71B4DC2
:10286000AB6803F00C03082B3FF4CAAE1B4E0023E9
:10287000022A336034D1FEF759FE07462B689901CE
:102880001ED4226AE3691343626A43EA8213E26A4E
:1028900043EA0263A26A0D4C5208013A43EA02433A
:1028A0006B6001233360FEF741FE054623689A0101
:1028B0003FF5BCAEFEF73AFE401B0228F6D9E2E631
:1028C000FEF734FEC01B0228D8D9DCE600380240EF
:1028D00000004742800E47420070004060004742BF
:1028E000FEF724FE04462B689B017FF59FAEFEF7A2
:1028F0001DFE001B0228F6D9C5E600BF134908B526
:102900008B6803F00C03042B03D0082B03D0104872
:1029100008BD104808BD4A684B68496813F4800335
:1029200014BF0C480A48C1F3881118BF002302F0F5
:102930003F02A1FB0001FDF765FC044B5B68C3F39C
:10294000014301335B00B0FBF3F008BD00380240E7
:102950000024F40040787D012DE9F0410D46044645
:1029600010B90120BDE8F081444B1A6802F00F0253
:102970008A4228D321688F072DD4C80740D43F4B03
:102980001A6802F00F02954266D3226851076CD490
:10299000130707D53A4A2169936823F4604343EA51
:1029A000C1039360FFF7AAFF354B364A9B68C3F318
:1029B0000313D35CD840344B1860002002F03EFE75
:1029C0000020BDE8F081CAB21A701B6803F00F0343
:1029D0009942C6D1CEE72A4B11F0040F1EBF9A6868
:1029E00042F4E0529A600E0742BF9A6842F4604295
:1029F0009A609A68A06822F0F00202439A60BCE7ED
:102A000062681F4B012A1DD11B6813F4003FA8D038
:102A10001B4EB36823F003031343B360FEF786FD38
:102A200041F288380746B368626803F00C03B3EBE1
:102A3000820FA4D0FEF77AFDC01B4045F3D90320D6
:102A4000BDE8F081911E01291B6802D813F0007FB8
:102A5000DDE713F0020FDAE7EAB21A701B6803F041
:102A60000F039D427FF47DAF8FE70549E0688B68D7
:102A700023F4E05303438B608AE700BF003C02402D
:102A8000003802400E6400088C000020014B1868DA
:102A9000704700BF8C000020044B054A9B68C3F3BD
:102AA0008223D35C034A1068D84070470038024044
:102AB0001E6400088C000020044B054A9B68C3F389
:102AC0004233D35C034A1068D84070470038024054
:102AD0001E6400088C0000200F2303600B4B9A68D3
:102AE00002F0030242609A6802F0F00282609A6883
:102AF00002F4E052C2609B68DB0803F4E053036118
:102B0000034B1B6803F00F030B6070470038024053
:102B1000003C02400368F7B59A07044640F08880FD
:102B2000236813F00C0F44D0804D814E00232B609E
:102B3000FEF7FCFC074633689B0000F1BD8021686E
:102B40004F0715D56369D6F8882020691B0602F067
:102B5000E04243EA80131343C6F88830D6F88C303D
:102B6000226A23F4F853013A43EA0223C6F88C3070
:102B70000E0714D56E4AA369D2F8881020691B0786
:102B800001F0706143EA80130B43C2F88830D2F839
:102B90008C30616A23F440330B43C2F88C3001233C
:102BA0002B60FEF7C3FC624D06462B68980040F18F
:102BB0008A8023689A0631D5002301935C4B5D4DD2
:102BC0001A6C42F080521A641B6C03F0805301931C
:102BD000019B2B6843F480732B60FEF7A7FC06462D
:102BE0002B68D90576D5524D2B6F13F4407377D1EE
:102BF000A36A03F44072B2F5407F4D4A40F09180E1
:102C0000916823F0704021F4F81120F440700143E2
:102C10009160116FC3F30B030B431367206810F02F
:102C200010001FBF444B94F82C201A60002041E094
:102C3000424D3F4E00232B60FEF778FC0746336879
:102C40001B0131D42268D70706D5A36861681B072A
:102C500043EA8113C6F88430900715D5344AE368F7
:102C6000D2F8841060681B0601F0E04143EA80134B
:102C70000B43C2F88430D2F88C10E36921F01F01B5
:102C8000013B0B43C2F88C3001232B60FEF74EFC56
:102C9000274D06462B6819013FF542AFFEF746FC6B
:102CA000801B0228F6D904E0FEF740FCC01B022876
:102CB000C5D9032003B0F0BDFEF738FCC01B0228C5
:102CC0007FF639AFF5E7FEF731FC801B02287FF66F
:102CD0006CAFEEE7FEF72AFC801B022880D9E8E7FC
:102CE000A26A02F44072934282D02B6F144A0121EF
:102CF000116023F44073002111602B672B6FDA07FA
:102D00007FF576AFFEF712FC41F2883706462B6F4F
:102D10009B073FF56DAFFEF709FC801BB842F6D963
:102D2000C7E7916821F4F81172E700BF70004742CD
:102D30000038024000700040E011474268004742FE
:102D4000400E474210B50446002836D00023836267
:102D500090F8513003F0FF021BB980F8502002F0C8
:102D6000E9FB2168A068A269022384F851300B684E
:102D700023F040030B6063680343E068034320696A
:102D8000034360690343E0690343206A0343A06A85
:102D9000034302F4007003430B60120C636A02F0F9
:102DA00004021A434A60CB6923F40063CB6100201C
:102DB0000123606584F8513010BD012010BD036807
:102DC000DA6842F00102DA601A6842F001021A6021
:102DD00000207047704770477047704703681A6952
:102DE000910710B504460ED5DA6892070BD56FF03F
:102DF00002021A619B6901229B07027677D0FFF7D6
:102E0000EAFF0023237623681A69500710D5DA6891
:102E100051070DD56FF004021A619B69022213F469
:102E2000407F2276204668D0FFF7D5FF0023237627
:102E300023681A6912070FD5DA6810070CD56FF0EE
:102E400008021A61DB6904229907227620465AD0CB
:102E5000FFF7C1FF0023237623681A69D20610D535
:102E6000DA68D0060DD56FF010021A61DB6908220E
:102E700013F4407F227620464BD0FFF7ACFF0023AF
:102E8000237623681A69D10708D5DA68D20705D5F1
:102E90006FF001021A61204602F0C6FA23681A692F
:102EA000100608D5DA68110605D56FF080021A61A0
:102EB000204600F0D6F823681A69520608D5DA6869
:102EC000500605D56FF040021A612046FFF785FFD6
:102ED00023681A69910622D5DA6892061FD56FF029
:102EE000200220461A61BDE8104000F0B9B8FFF793
:102EF00071FF2046FFF770FF83E7FFF76BFF204667
:102F0000FFF76AFF92E7FFF765FF2046FFF764FFD0
:102F1000A0E7FFF75FFF2046FFF75EFFAFE710BDBA
:102F20002E4A0368904212D0B0F1804F0FD0A2F524
:102F30007C4290420BD002F58062904207D002F5AD
:102F40008062904203D002F5784290421DD14A68D7
:102F500023F070031343214A904204D1CA6823F43A
:102F60004073134328E0B0F1804FF7D01C4A9042E1
:102F7000F4D002F580629042F0D002F58062904277
:102F8000ECD002F578429042E8D0164A9042E5D063
:102F900002F580629042E1D002F580629042DDD07D
:102FA000A2F598329042D9D002F580629042D5D0F5
:102FB00002F580629042D1D003608B68C3620B68D7
:102FC0008362064B984206D003F58063984202D094
:102FD0000123436170470B690363F9E70000014077
:102FE000000400400040014010B50446A0B190F834
:102FF000393003F0FF021BB980F8382002F0D0FB13
:10300000022384F839302068211DFFF789FF01234E
:1030100084F83930002010BD012010BD90F8383000
:10302000012B10B54FF0020318D080F83930036837
:103030000C685A68496822F070025A605A68224344
:103040005A609A6822F080029A609A680A439A60ED
:10305000012380F83930002380F83830184610BD3D
:103060007047704784B038B505AD85E80E000A9BFF
:10307000012B044626D1836B23F480338363C3681A
:1030800023F4840323F04003C360C36823F4401394
:10309000C360119B012B02BFC36843F48013C3605C
:1030A00000F0DEFB089B012B07D1A36843F0060369
:1030B000A360A36843F02003A360BDE8384000206C
:1030C00004B07047C36843F04003C36000F0C8FB1E
:1030D0004FF48033A363E5E7836843F00103836023
:1030E00000207047836823F001038360002070474D
:1030F00008B5C368012923F0C043C36008D1C36881
:1031000043F00053C3603220FEF716FA002008BDDA
:103110000029F8D1C36843F08043C360F3E700009F
:1031200084B02DE9F041044607A880E80E00119E06
:103130000A9FA36B8846A6B943F40013A363002338
:10314000C4F8003ED4F80038C4F800380C9B012BBA
:1031500004F500655ED1099939B9204600F09EF862
:1031600007E043F40023A363E9E71946204600F093
:1031700095F81021204600F06FF8204600F07EF808
:1031800000234FF0FF322B6119466B614FF09040E6
:10319000AA614FF0FF0EEB6104F5106243453BD18D
:1031A000002104F5306208464FF0904E4FF0FF0CBE
:1031B0008B423ED12B69012F23F480732B6108D100
:1031C000234B2B632B6B43F4803343F003032B63BC
:1031D0002B6B0023A3616FF0804363611FB9A36968
:1031E00043F01003A361A2691A4B1343A3610D9B23
:1031F0001BB1A36943F00803A361012E01BFA369BA
:1032000043F0804343F00403A361BDE8F041002094
:1032100004B070470321A0E7D2F800C0BCF1000F52
:10322000B4BF1060116001331161C2F808E02032B0
:10323000B4E7D2F80080B8F1000FB4BFC2F800E0E4
:10324000106001311061C2F808C02032B0E700BF41
:103250000001800000383C80890141F02001064ACD
:103260000161013A05D0036913F02003F9D1184632
:1032700070470320704700BF410D03001023064A2A
:103280000361013A05D0036913F01003F9D1184620
:1032900070470320704700BF410D0300D0F800388D
:1032A0001943C0F800180020704700F50062D0F8FC
:1032B000080810F0060012D0936803F00603022BF2
:1032C0000CD0936803F00603062B07D0936803F035
:1032D0000603042B14BF0020022070470320704710
:1032E00030B54B780C78D0F81C5800F50062012BF3
:1032F0001BD1A3409BB22B4300F51060D36100EBC0
:1033000044131A6812040ED48A68C8781D68C2F380
:103310000A0242F0805242F4004242EA804040EA0F
:10332000845028431860002030BD4FF48033A34000
:1033300000F530602B4300EB4410D36103681B049D
:10334000F1D48B68C9780268C3F30A0343F0805351
:1033500043F4004343EA814313430360E3E700F08F
:1033600001B8000070B54B78012B0E460546097870
:103370004FF0200326D100F5106213FB01231A68D9
:1033800022F400421A604FF000621A604FF080424F
:103390001A601F4A013A01D1032070BD9C6814F0E5
:1033A0008044F7D110212846FFF756FF3178D5F831
:1033B0001C2801238B409BB222EA0303C5F81C386A
:1033C000204670BD00F5306213FB01231A6822F419
:1033D00000421A604FF000621A604FF080421A609B
:1033E0000B4A013AD8D0986810F01000F9D1D5F8FE
:1033F000043843F48063C5F80438D5F81C384FF41A
:1034000080328A4023EA0203C5F81C3870BD00BF31
:10341000410D0300F7B54B780C78012B4B6977D140
:10342000202600F5106516FB04542669002B38D1C0
:1034300026F0FF5626F4C0162661266946F40026BB
:1034400026612669F60CF6042661012A50D10C7813
:103450000E6905EB44146661CE78012E0FD1D0F8C9
:1034600008480F7814F4807F4FF0200414FB0754B1
:1034700027680CBF47F0005747F0805727600F7848
:1034800005EB4715012E2C6844F004442C6005D14F
:1034900000929BB23A46C96800F0EFF8002003B0F2
:1034A000F0BDF60CF604266126698F6826F0FF56FB
:1034B00026F4C0162661DE19013EB6FBF7F7374E3B
:1034C000D4F810E006EAC74646EA0E0626612769E8
:1034D000C3F312063E432661CE78012E5AD12669E7
:1034E00026F0C0462661266946F000562661ACE704
:1034F000CE78012EB3D0002BAED091F800E0D0F8FA
:103500003478012404FA0EF43C43C0F83448A3E7AD
:1035100000F5306505EB44142569ED0CED042561DB
:10352000256925F0FF5525F4C01525618D68FBB987
:103530002369C5F312051D432561236943F4002364
:103540002361012A04BFCB686361CB78012B0AD1C8
:10355000D0F8083813F4807F23680CBF43F0005381
:1035600043F080532360236843F00443236095E7CE
:103570000A4E27692B44013BB3FBF5F306EAC34629
:103580003E4326619BB226695D43C5F31205354370
:103590002561D6E7012AAED159E700BF0000F81F28
:1035A0004B78012B70B50B784D6943D1202400F581
:1035B000106614FB03631C69CDB924F0FF5424F496
:1035C000C0141C611C6944F400241C611C69E40CD7
:1035D000E4041C610D7806EB4513012A1C6844F0D5
:1035E00004441C601BD10A695A61002070BDE40CC0
:1035F000E4041C611C6924F0FF5424F4C0141C6111
:103600008C68A54288BF4C611C6944F400241C618D
:103610004C691D69C4F312042C431C61DAE74B6941
:10362000002BE2D0D0F834280123AB401343C0F87C
:103630003438DAE700F5306000EB43100369DB0C47
:10364000DB040361036923F0FF5323F4C013036118
:103650008B6805B14B61046944F40024046104697A
:10366000C3F312032343012A036104BFCB68436100
:10367000036843F004430360B7E710B59DF80840C2
:103680004CB9033300F5805023F0030300EB023202
:103690000B44994201D1002010BD51F8040B106079
:1036A000F7E7033222F003020A4400F5805091420A
:1036B00001D108467047036841F8043BF7E74B78AF
:1036C0000A78012B4FF020030BD100F5106013FB9B
:1036D00002000368002B0BDB036823F080430360C8
:1036E00006E000F5306013FB02000368002BF3DAFC
:1036F000036843F400130360002070474B780A7896
:10370000012B0CBF00F5106000F53060202313FB87
:103710000200036823F400130360CB78023B012B03
:103720009EBF036843F08053036000207047D0F8C9
:10373000003823F4FE63C0F80038D0F800380901DF
:1037400001F4FE611943C0F800180020704708B565
:10375000D0F8043823F00203C0F804380320FDF742
:10376000EBFE002008BD08B5D0F8043843F0020392
:10377000C0F804380320FDF7DFFE002008BD4269D1
:10378000806910407047D0F8183800F50060C069B3
:103790001840000C7047D0F8183800F50060C06978
:1037A000184080B2704700F5306303EB411100F51B
:1037B00000608A6840691040704710B5D0F8104822
:1037C000D0F8343800EB4110CB4000F51060DB013D
:1037D0008068DBB22343184010BD406900F001004F
:1037E0007047D0F8003923F4FF6323F00703C0F8D3
:1037F000003900F500639A6802F00602042A02BF4D
:10380000D0F8002942F00302C0F800295A6842F4B7
:1038100080725A600020704710B50024C0F8104B29
:10382000D0F8104B44F40024C0F8104BD0F8104BE3
:1038300044F01804C0F8104BD0F8104B012900F5E3
:10384000306344F0C04408BF4FF08023C0F8104BF1
:1038500004BFC0F8142BC0F8003B002010BD0000CE
:103860000A4B013B01D1032070470269002AF8DAB4
:103870000369064A43F001030361013AF3D0036987
:1038800013F00103F9D11846704700BF410D030042
:10389000292303800048704744000020D0F81832E4
:1038A00000201875704710B5D0F818422369012B15
:1038B00007D1D0F81C326178DB6820789847002364
:1038C0002361002010BD00000A23038000487047D8
:1038D0007C00002038B5D0F81852D0F81C32697836
:1038E000DB6804462878984702232A4601212046AF
:1038F00002F0DCF8002038BD38B50C78D0F818326A
:1039000014F0600405462CD0202C0CD14A78023AE1
:10391000092A20D8DFE802F013091F1F1F1F1F17F5
:103920000F058A785A60002419E00122191D2846E3
:1039300000F076FBF7E74A88120A9A60F3E7012263
:1039400003F10801F3E701221A6128468A79194632
:1039500000F07BFBE7E7284600F03BFB0224204613
:1039600038BD4A780A2A1AD00B2A1ED0062AF6D168
:103970004B881B0A222B07D1CA88D0F81C32022A96
:1039800028BF02221968D2E7212B05D1CA8808492D
:10399000092A28BF0922CAE721462246C7E7012291
:1039A00003F10C0100F03CFBD9E78A78DA60D6E736
:1039B0007000002010B58121044602F01DF801219D
:1039C000204602F019F8D4F8183253B1D4F81C325A
:1039D0009B689847D4F8180202F098FB0023C4F8BB
:1039E0001832002010BD70B5022305460322812144
:1039F00001F0F2FF022303220121284601F0ECFF2F
:103A0000182002F07BFB0646C5F8180268B1D5F80D
:103A10001C32002404755B6898470223324601215A
:103A2000284602F043F8204670BD012070BD19B150
:103A3000C0F81C12002070470220704708B580B102
:103A4000D0F8143213B10023C0F8143209B1C0F811
:103A50001012012380F8FC31027001F079FF002080
:103A600008BD022008BD19B1C0F81412002070472B
:103A70000220704708B501F0A1FF002008BD08B57D
:103A8000D0F814320BB9022008BD1B6898470028F3
:103A9000F9D108BD08B5D0F814325B68984700200A
:103AA00008BD38B5044600F50275284600F07DFAD9
:103AB000012394F80812C4F8F431B4F80E32C4F8B3
:103AC000F83101F01F03012B0ED007D3022B10D0C9
:103AD00001F08001204601F09DFF03E029462046C9
:103AE00000F0E6F8002038BD2946204600F0E2F953
:103AF000F8E72946204600F0F5F9F3E738B5044623
:103B0000154611BBD0F8F431032B0FD1D0F80C318E
:103B1000D0F8102193420BD99B1A9A4228BF1A461B
:103B2000C0F80C3192B2294600F09EFA002038BD50
:103B3000D0F814321B6923B190F8FC21032A00D17C
:103B40009847204600F098FAF0E7D0F814329B69C5
:103B5000002BEBD090F8FC21032AE7D19847E5E74A
:103B600070B5134604460E4600293DD1D0F8F42125
:103B7000022A0FD1C569026A954214D9AA1AC261F4
:103B8000194692B200F059FA33461A4619462046B1
:103B900001F08CFF94F80032012B02D1002384F84D
:103BA0000032002070BD8369B3FBF2F502FB1535CE
:103BB00065B99A420AD8D0F8F821934206D22A462B
:103BC00000F03BFAC4F8F8512B46DEE7D4F8143283
:103BD000DB682BB194F8FC21032A01D120469847D9
:103BE000204600F054FAD5E7D0F814325B69002B78
:103BF000D7D090F8FC21032AD3D19847D1E738B524
:103C00000022044611464025402301F0E5FE2B46E4
:103C1000C4F8105100228021204601F0DDFE01236E
:103C200084F8FC31D4F8183225622BB1D4F8143260
:103C300021795B6820469847002038BD0174002038
:103C4000704790F8FC3180F8FD31042380F8FC3196
:103C50000020704790F8FD3180F8FC31002070475B
:103C600008B590F8FC21032A04D1D0F81432DB699E
:103C700003B19847002008BD00207047002070471E
:103C80000020704708B5012280F8FC21D0F81422EA
:103C9000017952689047002008BD10B58021044684
:103CA00001F0B8FE20460021BDE8104001F0B2BE90
:103CB00037B54B7804460D46092B00F28180DFE8CA
:103CC00013F0D000EC007F00E0007F0074000A00D9
:103CD0007F00C000940049880B0A013B062B6FD877
:103CE000DFE803F0041C296E6E505900D0F8103242
:103CF0001B68207C0DF106019847BDF80620002ABC
:103D00006ED0EB88002B6BD09A4228BF1A46ADF8D4
:103D100006200146204600F083F961E0027CD0F8DD
:103D2000143232B99B6A0DF10600984702234370A2
:103D3000E3E7DB6AF7E7C9B205291CD8DFE801F041
:103D400003070B0F1317D0F810325B68D1E7D0F8D8
:103D500010329B68CDE7D0F81032DB68C9E7D0F8A5
:103D600010321B69C5E7D0F810325B69C1E7D0F8A3
:103D700010329B69BDE7D0F814320DF106029B6B3F
:103D80009847BAE7037CDBB9D0F814320DF106008E
:103D90005B6B9847B1E7037C93B9D0F814320DF10F
:103DA00006001B6B98470723C1E78B8843B9CB8874
:103DB00033B990F8FC318D78032B05F07F0503D1E2
:103DC0002046FFF76AFF0BE080F8FE51294601F01C
:103DD00051FE204600F050F92DB1022384F8FC3149
:103DE000002003B030BD0123F8E78978304D012968
:103DF0002970E5D890F8FC31022B0CD0032BDFD1D1
:103E0000B1B9022380F8FC314160FFF743FE204640
:103E100000F032F9E4E70029F9D0012103234160E1
:103E200080F8FC312046FFF72AFE0228EFD1C7E7D1
:103E300041680129EBD0C9B2FFF72CFE29786160F7
:103E4000F0E7CA88012ABBD190F8FC31022B03D0DD
:103E5000032BB5D1011D5DE70146002341F8083F62
:103E600058E790F8FC31023B012BA9D80123C3602D
:103E7000D0F804320BB10323C360022204F10C0119
:103E800048E74B88012BABD1C4F80432D4F8143284
:103E900029469B6820469847B9E790F8FC31023BD9
:103EA000012B8DD84B88012B9AD10023ECE700BF62
:103EB0005801002038B590F8FC31032B04460D461C
:103EC0000DD10B79012B0AD8D0F814329B68984792
:103ED000EB8813B9204600F0CFF8002038BDFFF77B
:103EE000DCFEFAE770B50A788E8802F06002202ABC
:103EF00004460D46F3B205D1D0F814329B689847BA
:103F0000002070BD4A78012A1CD02AD3032AF7D199
:103F100090F8FC21022A40D0032A02D0FFF7BDFE10
:103F2000EEE74A8822B95E0602D0194601F072FD1A
:103F3000D4F8143229469B6820469847204600F062
:103F40009BF8DDE790F8FC21022A26D0032AE5D170
:103F50004A88002AD4D15906F0D0194601F068FDEC
:103F6000E6E790F8FC21022A17D0032AD6D103F005
:103F70007F0516F0800F00EB0515194614BF1435A8
:103F800005F5827501F062FD68B101232B60022204
:103F90002946204600F044F8B2E75A06B0D0194648
:103FA00001F038FDACE72860F1E70B7803704B783F
:103FB0004370CA788B7803EB022343804A790B79EC
:103FC00003EB02238380CA798B7903EB0223C3803E
:103FD000704710B58021044601F01CFD20460021E9
:103FE000BDE8104001F016BD30B588B105462B1A6A
:103FF00015F8014BDBB2002CF9D15B0002331380C2
:104000000B7003234B700138022310F8015F05B9D0
:1040100030BD5A1CD2B2CD540233DBB28C54F4E71B
:1040200010B513460222C0F8F42183610A46C36129
:10403000002101F02DFD002010BD08B513460A46F1
:10404000002101F025FD002008BD10B51346032214
:10405000C0F8F421C0F808310A46C0F80C3100213C
:1040600001F024FD002010BD08B513460A460021CA
:1040700001F01CFD002008BD08B50423C0F8F43190
:1040800000231A46194601F003FD002008BD08B5BB
:104090000523C0F8F43100231A46194601F006FD45
:1040A000002008BD08B500F0D7FB002008BD30B5E2
:1040B000B0F90840028A0B4690E8220085B0842CB3
:1040C00014BF0334002403A801900094284600F094
:1040D000F3FA01280CBF0398002005B030BD08B5E5
:1040E000002808BF012000F005FD002008BD00F1F8
:1040F000080343604FF0FF32C36003610023826016
:104100000360704700230361704743684B609A68FF
:104110008A609A685160996003680861013303609E
:1041200070470A68531C30B50AD103695A684A605F
:1041300091608B605960036808610133036030BD92
:1041400000F108035C682568AA42EFD32346F9E72B
:104150004168826803698A60826851605968884250
:1041600008BF5A6000220261186801381860704761
:104170000A4B1B68013308D04FF0500383F31188BA
:10418000BFF36F8FBFF34F8FFEE74FF0500383F302
:104190001188BFF36F8FBFF34F8FFEE788000020B9
:1041A00006480068006880F3088862B661B6BFF30D
:1041B0004F8FBFF36F8F00DF00BF000008ED00E0FE
:1041C000DFF80C00016841F47001016070470000E5
:1041D00088ED00E04FF0807340F8043C074B40F856
:1041E0000C3C21F001016FF0020340F8081C40F87C
:1041F000202C40F8243C4438704700BF714100082F
:10420000074B19680868B0E8F04F80F30988BFF3DE
:104210006F8F4FF0000080F311887047AFF300807C
:10422000783D00204FF0500383F31188BFF36F8F68
:10423000BFF34F8F0A4A13680133012B13600DD16E
:10424000084B1B6813F0FF0F08D04FF0500383F3A7
:104250001188BFF36F8FBFF34F8FFEE7704700BF2A
:104260008800002004ED00E0084A136843B94FF0CD
:10427000500383F31188BFF36F8FBFF34F8FFEE7B7
:10428000013B13600BB983F311887047880000204D
:10429000EFF30980BFF36F8F154B1A681EF0100FF4
:1042A00008BF20ED108A20E9F04F10604DF8043D62
:1042B0004FF0500080F31188BFF34F8FBFF36F8F23
:1042C00000F076FC4FF0000080F3118808BC1968FC
:1042D0000868B0E8F04F1EF0100F08BFB0EC108A6D
:1042E00080F30988BFF36F8F704700BFAFF3008082
:1042F000783D002008B54FF0500383F31188BFF3D9
:104300006F8FBFF34F8F00F0EBFA18B1034B4FF0F4
:1043100080521A60002383F3118808BD04ED00E089
:10432000064B4FF47A721B68B3FBF2F3044A013B6D
:104330001360044B07221A60704700BF8C000020F6
:1043400014E000E010E000E0314B324A13B5196888
:10435000914208D14FF0500383F31188BFF36F8F60
:10436000BFF34F8FFEE71A682B4B9A4208D14FF0EC
:10437000500383F31188BFF36F8FBFF34F8FFEE7B6
:10438000264B1A78D2B20192FF221A701B78244A67
:10439000DBB28DF803309DF8033003F05003137047
:1043A000204B07221A6000219DF80300000602F14D
:1043B000FF3423D401B11A601A68120202F4E062D9
:1043C0001A60019B154ADBB21370174B1A6842F44E
:1043D00070021A601A6842F070421A60FFF7A0FF7C
:1043E000124B00221A60FFF7EBFE114A136843F0EC
:1043F00040431360FFF7D4FEFFF7BAFE9DF8032099
:104400005200D2B28DF8032001212246CCE700BF32
:1044100000ED00E071C20F4170C20F4100E400E006
:10442000590100205C01002020ED00E08800002000
:1044300034EF00E010B50F4B1A68824218D35C6865
:104440001919884201BF4168184609195960446822
:1044500001198A4207D1084909688A421FBF516879
:104460001268091941609842026018BF186010BDB7
:104470001346E1E7703D0020600100202DE9F04186
:10448000044600F025FA3E493E4D0B680BBB3E4A00
:1044900056071FBFD01D20F0070002F570531B1AEE
:1044A00014BF02464FF470531344083B23F0070334
:1044B000364E0B6000207060326058601860981AA9
:1044C0001360334B50601860324B18604FF000435C
:1044D0002B602F68274216D1002C41D004F108032D
:1044E00058071CBF23F00703083363B1294A166835
:1044F000B342904607D8254A15686868834204D8B5
:1045000009688D4207D100242AE02C68002CF7D0DE
:104510002A462546F1E7296814681160C21A102A54
:104520000FD9E818410708D04FF0500383F31188E2
:10453000BFF36F8FBFF34F8FFEE742606B60FFF7F3
:1045400079FF13496B680868F61A1F4386424FF0DB
:104550000003C8F8006038BF0E6008346F602B603D
:1045600000F050FA630708D04FF0500383F311882E
:10457000BFF36F8FBFF34F8FFEE72046BDE8F0819A
:1045800060010020643D002064010020703D002097
:104590006C3D0020683D002010B5044670B3184AF9
:1045A00050F8043C1268134208D14FF0500383F3D3
:1045B0001188BFF36F8FBFF34F8FFEE750F8081CD1
:1045C00041B14FF0500383F31188BFF36F8FBFF3F6
:1045D0004F8FFEE723EA020340F8043C00F078F92D
:1045E000084A54F8043C1168A4F108000B44136015
:1045F000FFF720FFBDE8104000F004BA10BD00BF77
:10460000643D0020683D0020064A13681968064B87
:1046100019B94FF0FF321A6070471268D268D26839
:104620005268F8E77C3D0020543E0020F8B51B4B53
:104630001B4E1D680446306804300F46FFF788FDA6
:10464000334640B93168174EC96A32680120884044
:1046500022EA00023260621C07D137B119681248A1
:104660000431BDE8F840FFF750BD2C441A68A5425C
:10467000546007D90D4A10681968BDE8F840043144
:10468000FFF74FBD0A4A106819680431FFF749FD6A
:10469000084B1A68944238BF1C60F8BD9C3E00204D
:1046A000783D0020243E0020743E0020803D002004
:1046B0007C3D0020543E00202DE9F84F4FEA820A4D
:1046C000804650460F4699460B9EFFF7D7FE05469B
:1046D000002800F096805420FFF7D0FE0446002802
:1046E00000F08C80AAF1040A056355447B1E25F076
:1046F000070A00F134020F37597802F8011B13F84A
:10470000011F09B1BB42F7D10A9D062D28BF06251E
:104710004FF0000B271DE5626564384684F843B00E
:10472000C4F848B0FFF7EEFCC5F1070504F1180026
:10473000FFF7E8FCC4F84CB02461A561646284F81A
:1047400050B04A4641465046FFF744FD206006B14E
:104750003460FFF767FD324B324E1A68DFF8F080A5
:1047600001321A603568002D4ED134601B68012B70
:104770001DD108EB05001435FFF7B9FC8C2DF8D1DD
:10478000DFF8D090284D4846FFF7B1FC2846FFF7E8
:10479000AEFC2648FFF7ABFC2548FFF7A8FC2548F0
:1047A000FFF7A5FC244BC3F80090244B1D60244A5E
:1047B00024491368086801331360E26A012505FA89
:1047C00002F3034314200B6000FB02803946FFF71D
:1047D0009CFCFFF749FD1C4B1B6863B13368DA6A28
:1047E000E36A9A4207D2194B4FF080521A60BFF326
:1047F0004F8FBFF36F8F2846BDE8F88F2846FFF72D
:10480000CBFE4FF0FF35F6E70F4B1B68002BCED1E8
:104810003368DA6AE36A9A4298BF3460C7E700BF38
:10482000103E0020783D00203C3E00205C3E0020F1
:10483000883E0020743E00207C3D0020803D00200A
:10484000203E0020243E0020703E002004ED00E0C9
:10485000843D0020283E002013B5174B019300240F
:1048600000942346802215491548FFF725FF0128AB
:1048700014D14FF0500383F31188BFF36F8FBFF350
:104880004F8F104B4FF0FF321A600F4B18600F4BD9
:104890001C6002B0BDE81040FFF756BD013008D1E2
:1048A0004FF0500383F31188BFF36F8FBFF34F8F27
:1048B000FEE702B010BD00BF503E0020FD630008BF
:1048C0003D4B0008543E0020703E00209C3E0020DE
:1048D000024A136801331360704700BF1C3E00207A
:1048E0002DE9F84F3C4B1B68002B53D13B4B1C6808
:1048F00001341C60BCB93A4B1A68126842B14FF0DF
:10490000500383F31188BFF36F8FBFF34F8FFEE720
:10491000344A1968106818601160334A136801330B
:104920001360FFF771FE314D314F2B689C424FF001
:10493000000B3ED3DFF8A880DFF8C490D8F8002041
:10494000126872BB4FF0FF322A6032E006F1040AAF
:104950005046FFF7FDFBB16A19B106F11800FFF7E9
:10496000F7FBF06AD9F80030012202FA00F119438E
:10497000204BC9F800104FF0140E51460EFB0030CA
:10498000FFF7C3FB3868F16AC26A914228BF4FF053
:10499000010BD3E7184A1368013313604FF0000B83
:1049A00011E0D8F80020D268D66871688C42CDD268
:1049B00029603A680F4BD16A14224A439A58022A56
:1049C00028BF4FF0010B0D4A1268002A18BF4FF0A4
:1049D000010B5846BDE8F88F1C3E00209C3E00208D
:1049E0007C3D0020803D0020583E0020543E0020A9
:1049F000783D0020843D0020183E0020A03E00208D
:104A0000243E00202DE9F843314C236843B94FF090
:104A1000500383F31188BFF36F8FBFF34F8FFEE70F
:104A2000FFF700FC2368013B236024682CB10024BD
:104A3000FFF71AFC2046BDE8F883264B1B68002BC5
:104A4000F5D0DFF8A890244FDFF8A480D9F8003023
:104A5000E3B90CB1FFF7D8FD204D2C6844B1204ECE
:104A60000127FFF73DFF00B13760013CF9D12C6011
:104A70001B4B1B68002BDAD01A4B4FF080521A6088
:104A8000BFF34F8FBFF36F8F0124D1E7D9F80C30FC
:104A9000DC68261D04F11800FFF75AFB3046FFF7CB
:104AA00057FBE26A3968012505FA02F314200B432B
:104AB00000FB028031463B60FFF727FB0A4BE26AAE
:104AC0001B68DB6A9A4224BF054B1D60BEE700BF2E
:104AD0001C3E0020103E0020243E0020183E0020F6
:104AE000A03E002004ED00E0783D00205C3E002068
:104AF000843D002008B540B90E4B4FF080521A603B
:104B0000BFF34F8FBFF36F8F08BD0B4B196841B1D7
:104B10004FF0500383F31188BFF36F8FBFF34F8FB4
:104B2000FEE7FFF7D5FEFFF781FDFFF76BFF0028DB
:104B3000E2D008BD04ED00E01C3E002008B5174E91
:104B4000174C236863B9174B1B68012BF8D9164B18
:104B50004FF080521A60BFF34F8FBFF36F8FEFE7B4
:104B6000FFF7B6FE3568FFF74DFF002DE9D0FFF7E0
:104B700059FBF368DD68281DFFF7EAFA0B4A136852
:104B8000013B13602368013B2360FFF76DFB286B3B
:104B9000FFF702FD2846FFF7FFFCD2E7883E002022
:104BA000143E0020843D002004ED00E0103E002073
:104BB000174B1A68174B10B512B101221A6010BDBD
:104BC0001A60154B1B68B3FA83F3DBB2C3F11F0302
:104BD000142212495A4388188C5844B94FF0500394
:104BE00083F31188BFF36F8FBFF34F8FFEE74468E5
:104BF0000832646844600A44944204BF62684260B8
:104C0000142202FB03135B68DA68054BD6E700BF8A
:104C10001C3E0020A03E0020243E0020843D0020B9
:104C2000783D002008B50C480C4B4FF0100E80E882
:104C3000084000238360C3600361436103764376C9
:104C40008376C37603774377FCF78AFC18B1BDE817
:104C5000084000F0FBBB08BD9C3F00200064004002
:104C600010B5044688B01422002103A801F061FAAF
:104C70002268134B9A4221D103F5EA3300210191B6
:104C80001A6C104842F000721A641A6C02F000723A
:104C90000192019A02911A6B42F008021A631B6B8F
:104CA00003F008030293029B03230393022206935B
:104CB00003A9092304920793FCF7A0FD08B010BDD7
:104CC00000640040000C02400D4808B50D4B036025
:104CD00000238362C3620363436343608360C360F2
:104CE000FCF70CFD08B100F0B1FB01210448FCF712
:104CF00031FD18B1BDE8084000F0A8BB08BD00BFF9
:104D0000C43F002000B002400268094B9A4282B0C2
:104D10000BD100230193074B1A6B42F400021A6374
:104D20001B6B03F400030193019B02B0704700BFAB
:104D300000B002400038024008B500F05BFD0120E1
:104D4000FFF7CDF9FBE7000030B5074D0FCD87B079
:104D500001AC0FC42B682360002101A8FFF7A7F95D
:104D6000024B186007B030BDA0630008044000206B
:104D7000F0B58FB01422002109A801F0DAF9374B01
:104D8000374800220192196B41F004011963196B35
:104D900001F00401019101990292196B41F0200187
:104DA0001963196B01F02001029102990392196BAA
:104DB00041F080011963196B01F08001039103999F
:104DC0000492196B41F001011963196B01F00101A3
:104DD000049104990592196B41F002011963196B52
:104DE00001F00201059105990692196B41F010013D
:104DF0001963196B01F01001069106990792196B5E
:104E000041F008011963196B01F008010791079936
:104E100008921A6B42F040021A631B6B03F04003C6
:104E20000893089B12274FF40073012603250424DE
:104E300009A909930A970B960C950D94FCF7DEFCD3
:104E40004FF4807309A9074809930A970B960C95AC
:104E50000D94FCF7D3FC0FB0F0BD00BF003802404A
:104E6000000802400000024008B51348134BDFF869
:104E700050E04FF4804280E8084000238360C36024
:104E8000026143618361C3610362FCF7A3FD08B162
:104E900000F0DCFA00210848FCF70AFE08B100F037
:104EA000D5FA00210448FCF722FE18B1BDE80840FD
:104EB00000F0CCBA08BD00BF5C40002000540040A8
:104EC000801A060008B51348134BDFF850E04FF482
:104ED000804280E8084000238360C3600261436130
:104EE0008361C3610362FCF775FD08B100F0AEFA9F
:104EF00000210848FCF7DCFD08B100F0A7FA00210A
:104F00000448FCF7F4FD18B1BDE8084000F09EBA73
:104F100008BD00BF0840002000580040A0860100E6
:104F20007047000030B514228BB0044600210DEB11
:104F3000020001F0FEF82368274A934225D1274C4E
:104F4000274800250195236B43F002032363236B5D
:104F500003F002030193019BC023059312230693E0
:104F6000012307930323089305A904230993FCF75E
:104F700045FC0295236C43F400132364236C03F473
:104F800000130293029B0BB030BD164A9342FAD134
:104F9000124C154800250395236B43F0200323632F
:104FA000236B03F020030393039B12220323059337
:104FB000069208930122042305A909930792FCF79E
:104FC0001DFC0495236C43F480032364236C03F4D9
:104FD00080030493049BD6E700540040003802404D
:104FE0000004024000580040001402404B4B4C4962
:104FF0001A684C4BF0B51D684B4B4C4F1E6853194B
:105000003344013B0B604A494A4B08684A491B68D4
:105010000C6819182144013939604849324409683B
:105020002A440A444649013A0A60464A234412681F
:1050300003441344444A9BB0013B136000213422D3
:10504000684601F076F8342200210DEB020001F0F1
:1050500070F83E483E4B002480E818000723436167
:10506000032383610E23C3610523036240F28E2371
:10507000436240F2E51383624FF42573C36240F24A
:10508000E7138460C4600461036380F8344080F8EF
:10509000354080F83640FCF7CFFD08B100F0D6F976
:1050A0004FF4806307930022052369462748009444
:1050B000019402940394049405940694089309942B
:1050C0000A940B948DF830408DF831408DF83240C1
:1050D000FCF71EFE08B100F0B9F94FF4806214929B
:1050E0000522002315920DA9012218480D930E9355
:1050F0000F9310931193129313931693179318937E
:105100008DF864308DF865308DF86630FCF700FE60
:1051100008B100F09BF91BB0F0BD00BFC03E0020FD
:10512000C83E0020A83E0020BC3E0020C43E002017
:10513000A43E0020B43E0020B03E0020B83E002037
:10514000D03E0020AC3E0020CC3E0020B0400020ED
:105150000068014070B504468CB01422002107A8F5
:1051600000F0E7FF22684E4B9A4240F0968003F52C
:105170005043002400945A6C4A4842F080625A64BA
:105180005A6C02F080620092009A01941A6B42F00D
:1051900020021A631A6B02F020020192019A029413
:1051A0001A6B42F001021A631A6B02F001020292BA
:1051B000029A03941A6B42F002021A631A6B02F00D
:1051C00002020392039A04941A6B42F010021A63CB
:1051D0001A6B02F010020492049A05941A6B42F0C2
:1051E00008021A631A6B02F008020592059A0694E7
:1051F0001A6B42F004021A631B6B03F0040306935C
:1052000002250E26069B08954FF4806307A9079395
:105210000B96FCF7F3FA41F6580307A922480793C7
:10522000089509940A940B96FCF7E8FA0323079370
:1052300007A909231D480B93089509940A94FCF7C4
:10524000DDFA4FF4584307A91948079308950994C4
:105250000A940B96FCF7D2FA4FF4706307A913482F
:105260000793089509940A940B96FCF7C7FA4FF434
:10527000896307A90F480793089509940A940B9628
:10528000FCF7BCFA4FF4986307A90B4807930895FD
:1052900009940A940B96FCF7B1FA0CB070BD00BFEC
:1052A0000068014000140240000002400004024077
:1052B00000100240000C02400008024080B500AF20
:1052C000FCF70EF900F01CF8FFF752FDFFF78EFE19
:1052D000FFF7FAFCFFF7C8FDFFF7F4FD00F008F94F
:1052E00000F0E4F8FFF71CFEFFF79CFC00F03AFA30
:1052F00000F01AFAFFF728FDFEF7D4FEFEE70000E3
:1053000080B5A0B000AF07F150033022002118464D
:1053100000F00FFF07F13C0300221A605A609A6008
:10532000DA601A6107F10C0330220021184600F000
:1053300000FF0023BB603A4A394B1B6C43F080539B
:105340001364374B1B6C03F08053BB60BB680023B6
:105350007B60344A334B1B6823F4404343F480435F
:105360001360304B1B6803F440437B607B68012370
:105370003B654FF480337B650223BB664FF48003AB
:10538000FB6619233B67C0237B670223BB670423AB
:10539000FB6707F150031846FDF72EF90346002B73
:1053A00014BF01230023DBB2002B01D000F04EF824
:1053B0000F23FB6302233B6400237B644FF4A05361
:1053C000BB644FF48053FB6407F13C030321184690
:1053D000FDF7C2FA0346002B14BF01230023DBB202
:1053E000002B01D000F032F80823FB606423FB613E
:1053F00002237B6200233B6307F10C031846FDF791
:1054000089FB0346002B14BF01230023DBB2002BD2
:1054100001D000F01BF800BF8037BD4680BD00BF43
:10542000003802400070004080B582B000AF786064
:105430007B681B68044A934201D1FCF76BF800BFFC
:105440000837BD4680BD00BF0000014080B400AFFA
:1054500000BFBD465DF8047B7047000080B582B098
:1054600000AF786039607B68012B0CD13B684FF648
:10547000FF72934207D10648FBF7C8FF054A064969
:10548000034800F026FC00BF0837BD4680BD00BFC2
:10549000D43E0020000000203114000880B500AF89
:1054A0004FF6FF710120FFF7D9FF80BD08B50E4808
:1054B0000E4B4FF4827E80E8084000238360C36077
:1054C000036143614FF40072C3610362436283620C
:1054D0000A238261C362FDF735FC18B1BDE80840BC
:1054E000FFF7B4BF08BD00BFB0410020005001402D
:1054F0000E480F4A08B54FF4004C4FF4827380E811
:105500000C100023C360036143614FF40072C36158
:105510000362436283620A238261C362FDF712FC65
:1055200018B1BDE80840FFF791BF08BD5841002001
:105530000054014010B514228AB0044600210DEB3E
:10554000020000F0F6FD2368264A934224D1264B40
:105550002648002101915A6C42F480125A645A6C18
:1055600002F480120192019A02911A6B42F0200219
:105570001A631B6B03F020030293029B4FF46073CA
:10558000059302230693032308930523099305A992
:10559000FCF734F90AB010BD154A9342FAD1124B08
:1055A0001448002103915A6C42F400125A645A6C58
:1055B00002F400120392039A04911A6B42F0400223
:1055C0001A631B6B03F040030493049B4FF4C04326
:1055D000059302230693032308930523099305A942
:1055E000D6E700BF005001400038024000140240DE
:1055F000005401400018024007B50F4B00220092F2
:10560000596C41F480415964596C01F48041009116
:1056100000990192196C41F0805119641B6C03F0E0
:10562000805301930F216FF00100019BFCF726F8D6
:1056300003B05DF804FB00BF0038024030B50146FE
:1056400089B000221920FCF719F81920FCF74AF854
:105650000025154B02955A6C144C42F001025A6415
:105660005B6C03F00103029301A903A8029BFDF701
:1056700033FAFDF721FA0E4B236040F2E733E36083
:1056800040000C4BB0FBF3F0013860602046256110
:10569000A560FDF7A9FC20B92046FDF790FB09B0F5
:1056A00030BD0120FBE700BF003802400842002067
:1056B0000000014040420F007047FEE7FEE7FEE7B2
:1056C000FEE770470148FDF789BB00BF0842002094
:1056D0000148FCF7C7BB00BFE04400200F49D1F8E8
:1056E000883043F47003C1F888300D4B1A680020ED
:1056F00042F001021A6098601A6822F0847222F463
:1057000080321A60074A5A601A6822F480221A60AE
:10571000D8604FF000638B60704700BF00ED00E081
:10572000003802401030002413B50C4B0C48002404
:105730000094019480E818008460C460FDF754FC74
:1057400008B1FFF783FE6946054800940194FDF710
:1057500065FC08B1FFF77AFE02B010BD00100040F2
:105760004442002013B50C4B0C48002400940194D3
:1057700080E818008460C460FDF736FC08B1FFF7CC
:1057800065FE6946054800940194FDF747FC08B1A1
:10579000FFF75CFE02B010BD001400408042002004
:1057A0000368114A934282B00DD1002300930F4B3E
:1057B0001A6C42F010021A641B6C03F01003009381
:1057C000009B02B070470A4A9342FAD1002301932A
:1057D000064B1A6C42F020021A641B6C03F0200383
:1057E0000193019BEDE700BF00100040003802402C
:1057F0000014004010B5094C094901222046FEF76B
:105800001DF908492046FEF72EF920460649FEF705
:105810000EF92046BDE81040FEF72CB9BC4200202E
:10582000A4000020080000209400002010B50268A9
:10583000184B9A4286B02AD100244FF4005301A994
:105840001548019302940394FBF7D8FF4FF44043AB
:105850000193022302930323049301A90C230E480E
:1058600005930394FBF7CAFF0C4B00941A6B42F0AC
:1058700000521A631B6B03F0005300934D20224625
:105880000521009BFBF7FAFE4D20FBF72BFF06B02E
:1058900010BD00BF00000440000402400038024078
:1058A00000F56F71D0F8EC03FEF7FBB81C2303FB87
:1058B0000103D0F8EC03D3F80422FEF71FB91C2330
:1058C00003FB0103D0F8EC035A6CFEF749B9D0F89A
:1058D000EC03FEF7C5B910B5C1680446003118BF26
:1058E0000121D0F8EC03FEF7A9F9D4F8EC03BDE8E8
:1058F0001040FEF784B9000010B50446D0F8EC0360
:10590000FEF79FF92268D2F8003E43F00103C2F887
:10591000003E236A23B1034A136943F0060313616F
:1059200010BD00BF00ED00E0D0F8EC03FEF792B927
:10593000D0F8EC03FEF7A2B9D0F8EC03FEF79CB95F
:10594000D0F8EC03FEF79CB9D0F8EC03FEF79AB957
:1059500008B5017801292AD1164BC3F8EC03C0F829
:1059600020321548D962062283E805000220002271
:10597000D860986118461A615A61DA611A625A62EF
:105980001A635A63FCF7EDF908B1FFF75FFD4FF4B6
:1059900000710848FCF72BFE802200210548FCF727
:1059A00005FE4FF4BA7201210248FCF7FFFD00200A
:1059B00008BD00BFE04400200000044008B5D0F856
:1059C0002002FCF73AFA03289ABF024B185C022027
:1059D00008BD00BF2664000810B51C46D0F82002A0
:1059E00013462246FCF7FCFC03289ABF014B185CC7
:1059F000022010BD2664000808B5D0F82002FCF78C
:105A00001DFD03289ABF024B185C022008BD00BF91
:105A10002664000808B5D0F82002FCF776FD0328BC
:105A20009ABF024B185C022008BD00BF2664000824
:105A300008B5D0F82002FCF794FD03289ABF024B6A
:105A4000185C022008BD00BF2664000811F0800F1A
:105A5000D0F820324FF01C021BBF01F07F0102FB87
:105A6000013102FB013191F83A0008BF91F8FA01C7
:105A70007047000008B5D0F82002FCF79FFC03280F
:105A80009ABF024B185C022008BD00BF26640008C4
:105A900008B5D0F82002FCF718FD03289ABF024B86
:105AA000185C022008BD00BF2664000808B5D0F8C5
:105AB0002002FCF7E6FC03289ABF024B185C022088
:105AC00008BD00BF26640008002070470020704712
:105AD0000020704712230B8000487047C000002050
